:020000040800F2
:10000000684A00206902000803140008B9050008C6
:10001000991300082F040008254A0008000000007A
:10002000000000000000000000000000BD470008C4
:10003000D904000800000000AB030008D548000800
:10004000830200088302000883020008830200087C
:10005000830200088302000883020008830200086C
:10006000830200088302000883020008830200085C
:10007000830200088302000883020008830200084C
:10008000830200088302000883020008830200083C
:10009000830200088302000883020008830200082C
:1000A000830200088302000883020008830200081C
:1000B00083020008C949000883020008830200087F
:1000C00083020008830200088302000883020008FC
:1000D00083020008830200088302000883020008EC
:1000E00083020008830200088302000883020008DC
:1000F00083020008830200088302000883020008CC
:1001000083020008830200088302000883020008BB
:1001100083020008830200088302000883020008AB
:10012000830200088302000883020008830200089B
:10013000830200088302000883020008830200088B
:10014000830200088302000883020008830200087B
:10015000830200088302000883020008830200086B
:10016000830200088302000883020008830200085B
:10017000830200088302000883020008830200084B
:10018000830200088302000800F002F800F05CF827
:100190000AA090E8000C82448344AAF10107DA45E2
:1001A00001D100F051F8AFF2090EBAE80F0013F0D8
:1001B000010F18BFFB1A43F00103184764630000E6
:1001C000846300000A444FF0000C10F8013B13F068
:1001D000070408BF10F8014B1D1108BF10F8015BA0
:1001E000641E05D010F8016B641E01F8016BF9D193
:1001F00013F0080F1EBF10F8014BAD1C0C1B09D1EA
:100200006D1E58BF01F801CBFAD505E014F8016B5B
:1002100001F8016B6D1EF9D59142D6D370470000ED
:100220000023002400250026103A28BF78C1FBD8FF
:10023000520728BF30C148BF0B6070471FB505F09B
:10024000E4FF1FBD10B510BD00F05EF81146FFF7CA
:10025000F5FF05F05DF900F07CF803B4FFF7F2FF5D
:1002600003BC00F07FF800000948804709480047B8
:10027000FEE7FEE7FEE7FEE7FEE7FEE7FEE7FEE756
:10028000FEE7FEE704480549054A064B70470000B3
:10029000F14800088901000868440020684A0020ED
:1002A000684600206846002072B6704762B6704704
:1002B000EFF3108072B6704780F31088704730BF3C
:1002C000704720BF7047B0FA80F0704790FAA0F0F6
:1002D000B0FA80F0704790FAA0F07047704770470E
:1002E000704710B500F008F8006810BD10B504465E
:1002F00000F002F8046010BD00487047044400207C
:1003000000487047044400207546FFF7F9FFAE46E9
:1003100005006946534620F00700854618B020B511
:10032000FFF7B0FFBDE820404FF000064FF0000798
:100330004FF000084FF0000B21F00701AC46ACE88D
:10034000C009ACE8C009ACE8C009ACE8C0098D46FA
:10035000704710B50446AFF300802046BDE810405A
:10036000FFF77BBF01491820ABBEFEE72600020065
:100370007047000022484FF6FF710170002080F3A3
:1003800009882048016881F308881F484FF0805190
:10039000016062B6FEE71C484FF080510160704773
:1003A00019484FF080510160704772B6EFF3098031
:1003B00050B11EF0100F08BF20ED108A203880E8E1
:1003C000F00F12490968086000B5114880475DF8D0
:1003D00004EB104810490A7802700C480F490A686B
:1003E0000260106890E8F00F20301EF0100F08BF78
:1003F000B0EC108A80F309884EF0040E62B67047A4
:1004000022ED00E0D400002004ED00E0CC0000204C
:10041000292700085A0000205B000020D00000209F
:100420001FB5684604F094F8019804B010BD00BFF1
:10043000FEE710B500F020F800F01AF810BD00003B
:1004400010B5002400BF00BFFFF732FF044600BF15
:1004500000BF1021054800F0A1FF00BF00BF2046EB
:10046000FFF72AFF00BF00BF10BD00006C01002095
:1004700010B5FFF7E5FF10BD10B500200249086078
:1004800000F00AF810BD00001400002001490860C7
:10049000704700001400002010B5FFF7C1FF0446AC
:1004A0000848006840F0807006490860002006494E
:1004B00048600846006840F0010008602046FFF7E9
:1004C000E5FF10BDFCED00E0001000E001494868C8
:1004D00070470000001000E07047F0B50A460021A8
:1004E0000023002400BF3DE0012505FA01F3156853
:1004F00005EA03049C4234D105684F000326BE4040
:10050000B543056015794E00B54006683543056072
:100510001579012D02D01579022D16D185684F006D
:100520000326BE40B543856055794E00B5408668C8
:1005300035438560456801268E40B5434560456872
:1005400096798E40B6B235434560C5684F000326A4
:10055000BE40B543C560D5794E00B540C668354349
:10056000C560491C1029BFD3F0BDF0B5002300249D
:100570004D07ED0E02FA05F3CE1000F1200555F8F7
:1005800026504E07F70E0F26BE40B543CF1000F1A0
:10059000200646F82750CE1000F1200555F82650C9
:1005A00045EA0304CE1000F1200545F82640F0BDD1
:1005B000418370470183704700BFFEE710B500F02C
:1005C00057FC642004F014FF00F0F6FB642004F0F4
:1005D0000FFF10BD10B52DED0C8B0446FE4800F04A
:1005E00047FAFD4890ED050ADFEDFC0A20EE200AEF
:1005F000DFEDFB0A80EE201AB0EE418A90ED040A8E
:10060000DFEDF60A20EE200ADFEDF50A80EE201A73
:10061000F0EE418A90ED030ADFEDF00A20EE200AA9
:10062000DFEDEF0A80EE201AB0EE419A90ED020A5B
:10063000F0EE402A90ED010AB0EE402A90ED000A5B
:10064000F0EE401AB0EE481AF0EE680AB0EE490A31
:1006500000F000FDE34890ED000AE34880ED000A59
:10066000E24890ED000AE04880ED010AE04890ED94
:10067000000ADD4880ED020ADE4890ED000ADA4803
:1006800080ED030A90ED000A20EE000ADA4880EDC2
:10069000000AD54890ED000AD0ED010A20EE200AAC
:1006A000D64880ED000AD04890ED000AD0ED020A4D
:1006B00020EE200AD24880ED000ACB4890ED000AD7
:1006C000D0ED030A20EE200ACE4880ED000AC6488D
:1006D00090ED010A20EE000ACB4880ED000AC248E6
:1006E00090ED010AD0ED020A20EE200AC74880ED05
:1006F000000ABD4890ED010AD0ED030A20EE200A61
:10070000C34880ED000AB84890ED020A20EE000AC6
:10071000C04880ED000AB44890ED020AD0ED030A0B
:1007200020EE200ABC4880ED000AAF4890ED030A95
:1007300020EE000AB94880ED000AAF4890ED000AAB
:10074000B148D0ED000A70EE200AB7EE000AB0EE14
:10075000001A11EE200AB24880ED000AAB4890ED75
:10076000000AA848D0ED000A30EE600AF0EE000A58
:1007700020EE200AAA4880ED010AA54890ED000A63
:100780009F48D0ED000A30EE200AF0EE000A20EE7D
:10079000200AA34880ED020A9C4890ED000A99487F
:1007A000D0ED000A30EE200AF0EE000A20EE200A1A
:1007B0009B4880ED030A904890ED000A9548D0EDE3
:1007C000000A70EE200AB7EE000AB0EE001A11EE31
:1007D000200A934880ED040A8F4890ED000A87486C
:1007E000D0ED000A30EE600AF0EE000A20EE200A9A
:1007F0008B4880ED050A864890ED000A8048D0EDD0
:10080000000A30EE600AF0EE000A20EE200A84486A
:1008100080ED060A804890ED000A7848D0ED000A85
:1008200030EE200AF0EE000A20EE200A7C4880ED2F
:10083000070A714890ED000A7848D0ED000A70EE82
:10084000200AB7EE000AB0EE001A11EE200A744832
:1008500080ED080A644890ED010A20EE000AD0ED10
:10086000020A90ED021A00EE810AF7EE000AB0EEDD
:10087000001A41EE400A10EE901A084605F054FCAA
:1008800041EC1B0B584890ED000AD0ED010A20EE18
:10089000200AD0ED020A90ED031A00EE810AF0EE74
:1008A000000A20EE200A10EE101A084605F03CFC63
:1008B00041EC1C0BB0EE4B1AF0EE6B1AB0EE4C0A8A
:1008C000F0EE6C0A04F0E4FBB0EE40AAF0EE60AA91
:1008D0009FED540B53EC102B51EC1A0B05F064F9FF
:1008E00041EC190B9FED510B53EC102B05F004F864
:1008F00041EC180B04F026FFA0603B48D0ED000A45
:1009000090ED021A60EE810A90ED011AD0ED031A03
:1009100041EE610AB0EE001A60EE810AB0EE600AA4
:1009200004F03EFEB1EE400ADFED2D0A20EE200A73
:10093000DFED2A0A80EE201A84ED011A2C4890ED92
:10094000000AF8EE000A20EE200AD0ED000A20EEA0
:10095000200A2848D0ED000AB0EE001A60EE810AA5
:1009600090ED001A00EEC10AF7EE000A30EE200A00
:1009700010EE101A084605F0D7FB41EC1C0B1B4883
:1009800090ED000AF0EE000A20EE200A1848D0EDA3
:10099000000A20EE200A1348D0ED000AB0EE001A3B
:1009A00060EE810A134890ED001A00EE810A10EE05
:1009B000101A084605F0B8FB41EC1D0BB0EE4C1ABE
:1009C000F0EE6C1AB0EE4D0AF0EE6D0A04F060FB2A
:1009D000B0EE40BA2EE0000068430020DB0F494033
:1009E00000003443500100205843002054010020EF
:1009F000580100205C010020F4000020F8000020D5
:100A0000FC0000200001002004010020080100205B
:100A10000C0100201001002014010020180100200A
:100A200034430020000000000080664000000060A9
:100A3000FB210940F0EE60BA51EC1B0B04F076FE8E
:100A400041EC1A0B1FED090B53EC102B05F0ACF821
:100A500041EC190B1FED0B0B53EC102B04F04CFF6A
:100A600041EC180B04F06EFE2060BDEC0C8B10BD49
:100A700030B587B005460020019005A800F090F839
:100A800002A9881D00F028FA002435E0032C23DA9F
:100A900002A830F9140000EE100AB8EEC00AF6EE13
:100AA000000A20EE200A01A8005D00EE900AF8EE90
:100AB000600AB6EE001A00EE810A05EB840080EDB4
:100AC000000A05EB840090ED000ABCEEC00A10EEAF
:100AD000100A01A908550EE002A830F9140000EE32
:100AE000100AB8EEC00ADFED120A80EE201A05EBFC
:100AF000840080ED001A641C062CC7DBBDF91400CD
:100B000000EE100AB8EEC00A85ED060ABDF916001F
:100B100000EE100AB8EEC00A85ED070ABDF918000C
:100B200000EE100AB8EEC00A85ED080A07B030BD25
:100B30003333834186B000BF05AB012208A10B48C7
:100B400000F0D4FE0AE005A800231A4619460090DA
:100B5000064800F00BFF02A8FFF73CFDF3E700009A
:100B6000494D555F70726F630000000070420020B5
:100B700003460022002103E033F911000244491C1E
:100B80000A29F9DB0A2092FBF0F210B2704700004C
:100B9000024A127820F8121070470000230100204A
:100BA0001FB504464FF400716848FFF701FD02AA23
:100BB0000621482003F0C4FD4FF400716348FFF79D
:100BC000F9FC9DF808009DF8091040EA0120404218
:100BD00000B2ADF800009DF80A009DF80B1040EA45
:100BE0000120404200B2ADF802009DF80C009DF8D3
:100BF0000D1040EA012000B2ADF80400BDF900106C
:100C00005348FFF7C5FFBDF9021051481430FFF7F4
:100C1000BFFFBDF904104E482830FFF7B9FF4D481B
:100C20000078401C0A2190FBF1F201FB12004949B7
:100C300008704748FFF79CFF4749B1F90010401A78
:100C400000EE100AB8EEC00A4448D0ED000A20EECB
:100C5000200ABDEEC00A10EE100A00B220803C4807
:100C60001430FFF785FF3E49B1F90010401A00EE3D
:100C7000100AB8EEC00A3B48D0ED000A20EE200A68
:100C8000BDEEC00A10EE100A00B260803048283075
:100C9000FFF76EFF3449B1F90010401A00EE100A58
:100CA000B8EEC00A3148D0ED000A20EE200ABDEEB1
:100CB000C00A10EE100A00B2A08020882C490880DB
:100CC00060882C490880A0882B4908802B48007830
:100CD000D8B3B4F900002A49B1F90010884202DA09
:100CE000208827490880B4F902002649B1F900108C
:100CF000884202DA608823490880B4F90400224956
:100D0000B1F90010884202DAA0881F490880B4F9BE
:100D100000001E49B1F90010884202DD20881B49FD
:100D20000880B4F902001A49B1F90010884202DDC6
:100D3000608817490880B4F904001649B1F9001019
:100D4000884202DDA088134908801FBD00080240C8
:100D5000C843002023010020240100202C01002092
:100D6000260100203001002028010020340100204D
:100D70001C0100201E010020200100204401002051
:100D80003E010020400100204201002038010020E7
:100D90003A0100203C01002003460022002103E02C
:100DA00033F911000244491C0A29F9DB0A2092FB9D
:100DB000F0F210B2704700002DE9FF410025002637
:100DC0000027002022490880224908802249088003
:100DD000012022490870002407E0642004F042FB4F
:100DE000694602A800F078F8641C322CF5D3002480
:100DF00010E0C82004F036FB694602A800F06CF849
:100E0000BDF908000544BDF90A000644BDF90C000F
:100E10000744641CB4F57A7FEBD34FF47A7095FBEA
:100E2000F0F000B20A4908804FF47A7096FBF0F0B7
:100E300000B2084908804FF47A7097FBF0F000B2D6
:100E400005490880002005490870BDE8FF810000C1
:100E5000E6000020E8000020EA000020D800002082
:100E6000024A127820F8121070470000EC000020AF
:100E700010B580216B2000F0D7F86E2004F0B8FA8E
:100E80000721682000F0D0F86E2004F0B1FA0021AC
:100E90006B2000F0C9F8012004F0AAFA00211C2000
:100EA00000F0C2F8012004F0A3FA02211D2000F096
:100EB000BBF8012004F09CFA18211B2000F0B4F8C4
:100EC000012004F095FA00216C2000F0ADF801201B
:100ED00004F08EFA10BD000070B504460D464FF4C4
:100EE00080714748FFF764FB464A0E213B2003F020
:100EF00027FC4FF480714248FFF75CFB4148407883
:100F0000404A127840EA022001B23F48FFF7A8FFAA
:100F10003C48C0783B4A927840EA022001B23A4805
:100F20001430FFF79DFF37484079364A127940EA7E
:100F3000022001B234482830FFF792FF3148407A4E
:100F4000304A127A40EA022001B22F485030FFF7AF
:100F500087FF2C48C07A2B4A927A40EA022001B2DD
:100F600029486430FFF77CFF2648407B254A127BE6
:100F700040EA022001B224487830FFF771FF23488D
:100F80000078401C0A2190FBF1F201FB12001F497E
:100F900008701D485030FFF7FFFE1D4908801A48B1
:100FA0006430FFF7F9FE1B49088017487830FFF7D7
:100FB000F3FE194908801648008818490988401A24
:100FC00000B220801348008815490988401A00B2F1
:100FD00060801148008813490988401A00B2A08037
:100FE0000948FFF7D9FE288007481430FFF7D4FEE0
:100FF000688005482830FFF7CFFEA88070BD00004C
:10100000000802402443002098420020EC00002009
:10101000EE000020F0000020F2000020E60000209A
:10102000E8000020EA00002070B505460C464FF4A9
:1010300080710748FFF7BCFA284603F067FB20469B
:1010400003F064FB4FF480710148FFF7B3FA70BD01
:101050000008024000B52DED068BB0EE403AF0EEF0
:10106000603AB0EE414AF0EE615AF0EE424AB0EE1C
:10107000625AF5EEC05AF1EE10FA09D1F5EEC04A07
:10108000F1EE10FA04D1B5EEC05AF1EE10FA7DD0AF
:1010900065EEA50A44EEA40A45EE050AB0EE600A24
:1010A00004F018FAF0EE402A25EEA20AF0EE405ABB
:1010B00024EEA20AF0EE404A25EE220AB0EE405A93
:1010C000A94890ED000AA948D0ED000A20EE200AB8
:1010D000A748D0ED000AA74890ED001AF0EE407A3C
:1010E00040EEC17AA24890ED000A9F48D0ED000A78
:1010F00020EE200A9F48D0ED000A9C4890ED001A8F
:10110000B0EE408A00EE818A9948D0ED000A90ED59
:10111000001AB6EE000A10EE810A9448D0ED000ADB
:1011200090ED001AF0EE408A40EE818A24EEA80A83
:10113000B0EE409A05EE489A25EE270AF0EE409A66
:1011400045EEE89A25EE880AB0EE40AA04EEE7AA3A
:10115000894890ED000AB5EEC00AF1EE10FA40DDC4
:1011600090ED000A60EE090A844890ED000A9FEDB8
:10117000841A00EE810A80ED000A7F4890ED000A93
:1011800060EE290A7F4890ED000A00E051E09FEDF3
:101190007C1A00EE810A80ED000A774890ED000A83
:1011A00060EE0A0A784890ED000A9FED751A00EE8D
:1011B000810A80ED000A714890ED000A33EE000AC2
:1011C000B0EE403A6F4890ED000A33EE800AF0EE40
:1011D000403A6D4890ED000A34EE000AB0EE404A05
:1011E0000EE09FED6A0A654880ED000A9FED670AF0
:1011F000644880ED000A9FED650A634880ED000AAF
:101200006348D0ED000AB0EE430A00EE890AB0EE62
:10121000403AD0ED000AB0EE630A00EEA90AF0EE03
:10122000403AD0ED000AB0EE440A00EE8A0AB0EE71
:10123000404A9FED580A23EE000AB0EE403A9FED77
:10124000550A23EE800AF0EE403A9FED520A24EE52
:10125000000AB0EE404A464890ED006A4248D0EDA0
:10126000006A444890ED007AB1EE660A20EE030A67
:1012700007EE630A3D48D0ED000A00EEC40A3C4880
:10128000D0ED000A30EE200A80ED000A26EE030AB7
:1012900007EE040A3548D0ED000A00EEE30A3248B2
:1012A000D0ED000A30EE200A80ED000A26EE230A77
:1012B00006EEC40A2D48D0ED000A00EE830A2D4840
:1012C000D0ED000A30EE200A80ED000A26EE040A76
:1012D00006EEA30A07EE430A2448D0ED000A30EEDA
:1012E000200A80ED000A2248D0ED000A90ED001A95
:1012F00060EE810A1C4890ED001AD0ED001A41EE14
:10130000210A1C4890ED001AD0ED001A41EE210A86
:10131000164890ED001AD0ED001A41EE210AB0EE09
:10132000600A04F0D7F8F0EE402A114890ED000A68
:1013300020EE220A80ED000A0B4890ED000A20EE14
:10134000220A80ED000A0B4890ED000A20EE220AE6
:1013500080ED000A054890ED000A20EE220A80ED9B
:10136000000ABDEC068B00BD540100205C0100208A
:1013700050010020580100204C0100206001002095
:101380006F12033B64010020680100200000000090
:10139000480100206F12833A00BFFEE730B50546D2
:1013A0000C4622460021284600F001F830BD2DE908
:1013B000F04105460B4694460027002402E03F0218
:1013C0001F43641C042CFAD3604605F0030629462B
:1013D00046B1344603E001F8013B401E641C08B1ED
:1013E000042CF8D30A4601E080C2001F0428FBD277
:1013F000114602E001F8013B401E0028FAD1BDE889
:10140000F081704702490143024A116070470000B1
:101410000000FA050CED00E07047000010B503482D
:10142000006810B101480068804710BD2C00002002
:1014300070B5044600F0BCF80020454908704549E5
:1014400008704549087045490860454908604549A4
:101450000870454908704549087045490860454984
:1014600008604549086045490870454800680A21F8
:10147000B0FBF1F0434908604348006858B1434865
:10148000056845B14048066803E0761E00202860E4
:101490002D1D002EF9D100203D4908603D4908600E
:1014A0003D4908603D4908603D4908603D49086084
:1014B0003D4908603D49087001F052FD01F08CFD86
:1014C000204601F0E5FA208800B170BD204601F009
:1014D00045FB208800B1F8E7204601F04BFB20884F
:1014E00000B1F2E7204601F0ADFB208800B1ECE747
:1014F000204601F065FD208800B1E6E7204601F0B6
:10150000CDFE208800B1E0E7204602F099F920885E
:1015100000B1DAE7204601F0E9FA208800B1D4E70B
:10152000204602F003FE208800B1CEE7204602F0FC
:10153000CBF8208800B1C8E7204602F053FE20888F
:1015400000B1C2E701F0CEF9FFF766FF00BFBCE7CC
:10155000400000204100002074000020CC0000204A
:10156000D00000205A0000205B0000205C0000201A
:10157000680000206C000020700000207C0000202B
:101580008062000878000020506200084C62000869
:101590002000002024000020280000202C00002033
:1015A000300000203400002038000020AA00002075
:1015B000064800680649096800EB81000549086093
:1015C0000846006820F00700086070474C62000879
:1015D00050620008D400002008480078012800D09C
:1015E000704707480078FA2800DBF9E704480078DC
:1015F000401C0349087000BFF2E7000041000020D2
:101600004000002010B500242D480078012800D0AB
:1016100010BD00BFFEF74CFE044600BF294800780D
:1016200028B900BF2046FEF747FE00BFF0E7254877
:101630000078401E2349087008460078002805DD20
:1016400000BF2046FEF738FE00BFE1E71E480078E5
:10165000002805DD00BF2046FEF72EFE00BFD7E7BD
:1016600001F06AFC194908700846007800EB400058
:10167000174951F8200017490860084600681649C4
:101680000968884205D100BF2046FEF715FE00BF5D
:10169000BEE710480068D0F89000401C0D4909686A
:1016A000C1F890000D480068401C0C490860FEF726
:1016B00077FE00BF2046FEF7FFFD00BF00BFA7E793
:1016C0004100002040000020740000205B0000204A
:1016D0009C130020D0000020CC000020A00000209F
:1016E00010B500241F480078002800DD10BD1E48FA
:1016F0000078002800DDF9E700BFFEF7D9FD0446B9
:1017000000BF01F019FC194908700846007800EB89
:101710004000174951F82000164908600846006843
:1017200015490968884205D100BF2046FEF7C4FD6F
:1017300000BFDBE70F480068D0F89000401C0D495F
:101740000968C1F890000D480068401C0B4908600A
:10175000FEF721FE00BF2046FEF7AEFD00BF00BF32
:10176000C4E7000040000020740000205B0000205F
:101770009C130020D0000020CC000020A0000020FE
:1017800070B50446002518480078002803DD46F6A9
:101790006250208070BD15480078012803D045F6BE
:1017A00089602080F6E712480078FA2803DB45F2CA
:1017B00009202080EEE700BF00BFFEF779FD054657
:1017C00000BF00BF0A480078401C0949087001F0BA
:1017D000B9FC00BF00BF2846FEF76EFD00BF00BF8A
:1017E0000020208000BFD5E74000002041000020FD
:1017F000740000202DE9F04105460C4616460027EE
:1018000000BF00BFFEF754FD074600BF00BF012D1B
:1018100003D000200D49087002E001200B49087038
:1018200014B10B48046006E00A4800680A21B0FBC6
:10183000F1F00749086000BF00BF3846FEF73CFDE5
:1018400000BF00BF00203080BDE8F0817C00002098
:10185000780000208062000870B50446002520480A
:101860000078002803DD46F66550208070BD1D48D5
:101870000078012803D045F689602080F6E71A48F1
:10188000007818B946F664502080EFE700BF00BF2B
:10189000FEF70EFD054600BF00BF13480078401E4E
:1018A000114908700846007800280ADD00BF00BF13
:1018B0002846FEF701FD00BF00BF46F663502080BA
:1018C000D4E701F04DFC00BF00BF2846FEF7F4FC52
:1018D00000BF00BFFFF704FF0020208000BFC5E766
:1018E0004000002041000020740000202DE9F0415C
:1018F00004460E4617461D464FF00008184800786B
:10190000002804DD42F6E1602880BDE8F0811CB9C2
:1019100045F6C3502880F8E700BF00BFFEF7C8FCBB
:10192000804600BF00BF0F48206027620020606231
:10193000666004F1080001F019FA204601F096FCF7
:1019400009480088401C0849088000BF00BF404685
:10195000FEF7B2FC00BF00BF0020288000BFD4E724
:101960004000002053454D41840000202DE9F04700
:1019700088B00646894690461C46109D4FF0000AE6
:1019800060480078002806DD46F2AE10288000206E
:1019900008B0BDE8F08726B945F6C350288000207E
:1019A000F6E7B8F1000F03D0B8F5004F02D100E020
:1019B00000BF04E045F6256028800020E8E700BF6E
:1019C00051493068884204D045F6C4502880002030
:1019D000DEE70CB10020206000BF00BFFEF768FC0E
:1019E000824600BF00BF306A88B1306A401E306254
:1019F0000CB1706A2060376A00BF00BF5046FEF726
:101A00005BFC00BF00BF002028803846C0E708F418
:101A1000004060B1376A00BF00BF5046FEF74CFC83
:101A200000BF00BF46F2B01028803846B0E7374804
:101A3000007800280BDD00BF00BF5046FEF73CFCDD
:101A400000BF00BF46F6635028800020A0E74B4649
:101A500006223146684601F001F900BF00BF50463A
:101A6000FEF72AFC00BF00BFFFF73AFE00BF00BF31
:101A7000FEF71EFC824600BF00BF2548006890F8B4
:101A8000350030B101280CD002281AD0032821D10A
:101A900010E01CB11E480068006C20600020288007
:101AA00024E01CB11A480068006C206046F2A910BE
:101AB00028801BE00CB10020206047F2D92028804C
:101AC00014E01CB112480068006C206045F6C2505A
:101AD00028800BE046F62E60288000BF00BF5046ED
:101AE000FEF7EAFB00BF00BF002051E700BF376AE6
:101AF00000BF00BF5046FEF7DFFB00BF00BF384607
:101B000046E700004000002053454D41740000208E
:101B1000CC0000202DE9F04105460E4614462DB9B3
:101B200045F6C35020800020BDE8F0814EB1B6F5E7
:101B3000007F07D0B6F5004F05D0B6F5024F04D1AF
:101B400002E000BF00BF00BF04E045F62560208032
:101B50000020E9E700BF0A492868884204D045F61A
:101B6000C45020800020DFE7FEF7B0FC804623460B
:101B700042463146284601F09DFB07463846D3E7EA
:101B800053454D4110B5044612480078E8B901F0BC
:101B9000D3F91149087008460078104908700E48BA
:101BA000007800EB40000E4951F820000D49086014
:101BB000084600680C490860012006490870FEF7D5
:101BC000D9FB43F69920208002E045F68A60208008
:101BD00010BD0000410000205B0000205A000020E2
:101BE0009C130020D0000020CC0000202DE9F04103
:101BF00007464FF0000800BF00BFFEF759FB8046C4
:101C000000BF00BF00203B4908803B4908603B49BA
:101C100008603B4908603B4908603B49088100BFB8
:101C200000BF4046FEF748FB00BF00BF00BF00BF3B
:101C3000FEF73EFB804600BF00BF3448046800BF8B
:101C400000BF4046FEF738FB00BF00BF21E000BFE9
:101C500000BFFEF72DFB804600BF00BF0020783498
:101C6000E06320602063A061A082E0826062A062E5
:101C7000FEF72CFC2062783C04F164060020B08161
:101C8000D4F8BC4000BF00BF4046FEF715FB00BFC4
:101C900000BF002CDBD100BF00BFFEF709FB804670
:101CA00000BF00BF1A48056800BF00BF4046FEF7EE
:101CB00003FB00BF00BF12E000BF00BFFEF7F8FA51
:101CC000804600BF00BF05F120060020B081AD694D
:101CD00000BF00BF4046FEF7EFFA00BF00BF002D77
:101CE000EAD102F037F902F079FB00203880BDE834
:101CF000F08100008A0000209C000020B00000203D
:101D0000BC0000206C00002090130020A4000020E4
:101D100060000020F8B5044600266946324800F00D
:101D2000E7FCBDF8000018B1BDF800002080F8BD48
:101D30006A460021022000F03BFDBDF8000018B10A
:101D4000BDF800002080F2E700BF00BFFEF7B0FA48
:101D5000064600BF00BF00202449086000BF00BF46
:101D60003046FEF7A9FA00BF00BF002520480068F2
:101D700020490968884205D91D4800681D4909683D
:101D8000B0FBF1F525B91A4800680A21B0FBF1F55E
:101D90006A460021284600F00BFD6946124800F013
:101DA000C1F9BDF8000018B1BDF800002080BEE701
:101DB00000BF00BFFEF77CFA064600BF00BF002050
:101DC0000D490860094800680C49086001200C4969
:101DD000087000BF00BF3046FEF76EFA00BF00BFBC
:101DE0000020208000BFA2E7241800208C000020E3
:101DF00080620008686200089C00002090000020BB
:101E00009800002010B50348006810B10148006830
:101E1000804710BD300000202DE9FF4F85B00446FB
:101E20009046DDE91995159F139E002002906148A8
:101E30000078002805DD47F24A10288009B0BDE887
:101E4000F08F1CB947F2AD102880F7E7B8F1000F0A
:101E500003D147F24F102880F0E71EB946F62F60F5
:101E60002880EBE754480068874203D246F630608A
:101E70002880E3E71498B84203D346F631602880FF
:101E8000DCE71298402803D346F273202880D5E778
:101E900012983F2806D14948844203D046F2732065
:101EA0002880CBE7204601F0DBFC0020288009F0E9
:101EB000010088B109F0020070B1B346002004901F
:101EC00007E00020CBF800000BF1040B0498401C45
:101ED00004900498B842F4D3149806EB8000039061
:101EE000CDE9007932464046039B089900F0D2FACA
:101EF0008346C4F828800898E06206982062129809
:101F000084F83700C4F800B00398A06017986065A3
:101F1000179818B92A480068A06501E01798A065CD
:101F2000189860606662A763A4F83C904FF0000ABE
:101F300008E0002104F17C0040F82A100AF10100B9
:101F400000F0FF0ABAF1000FF3D004F16400169913
:101F500000F070FE204600F039F800BF00BFFEF729
:101F6000A7F9029000BF00BF94F8370001F004F811
:101F7000204601F079F8204601F028FC114800883D
:101F8000401C1049088010480078012807D000BF85
:101F900000BF0298FEF790F900BF00BF4EE700BFF8
:101FA00000BF0298FEF788F900BF00BFFFF798FB5B
:101FB00000BF43E7400000207C620008CC120020F4
:101FC00078000020A80000204100002010B5044641
:101FD0000348006818B1204601490968884710BDC8
:101FE0002000002070B504460D46002643480078C6
:101FF000002803DD47F24E10288070BD404884421F
:1020000003D147F24C102880F7E77CB900BF00BF2E
:10201000FEF74EF9064600BF00BF3A48046800BF0D
:1020200000BF3046FEF748F900BF00BF00BF00BF49
:10203000FEF73EF9064600BF00BF94F836000828B8
:102040002DD2DFE800F004090E10080A0F11204617
:1020500001F04AF82EE02DE000BF204601F05EFFBF
:1020600028E000BF00BF00BF204601F057FF94F8F2
:102070003400082810D2DFE800F004070508090A38
:102080000B0600BF00BF08E000BF00BF00BF00BFDD
:10209000204600F0A3FE00E000BF00BF0AE000BF42
:1020A00000BF3046FEF708F900BF00BF46F62D60BE
:1020B0002880A2E700BF04F1640000F099FD2046EB
:1020C00000F024F8204601F099FB0F480088401EDC
:1020D0000D490880204601F0C3FBFF2084F836003C
:1020E00000BF00BF3046FEF7E7F800BF00BF00208A
:1020F0002880FFF7F5FA00BF7FE7000040000020CE
:10210000CC120020CC000020A800002010B504460E
:102110000348006818B1204601490968884710BD86
:102120002400002070B504460D46002615480078AE
:10213000002803DD47F25510288070BD00BF00BFA6
:10214000FEF7B6F8064600BF00BF1CB10E48006897
:1021500084420AD100BF00BF3046FEF7ADF800BF91
:1021600000BF47F257102880E7E700BF00BF3046A6
:10217000FEF7A2F800BF00BF2946204601F0E2FBAF
:1021800000BFDAE740000020CC00002010B5044674
:102190000348006818B1204601490968884710BD06
:1021A000280000202DE9F04780460E4614461D46C3
:1021B0004FF000096F480078002805DD46F2AE10A8
:1021C00028800020BDE8F0871EB1B6F5004F02D18F
:1021D00000E000BF04E045F6256028800020F1E71C
:1021E00000BF0CB10020206000BF00BFFEF760F808
:1021F000814600BF00BF60480068406CA8B35E48DD
:102200000068406C401E5C49096848645A48006890
:10221000476C1CB158480068006C2060FEF756F906
:1022200055490968096C401A53490968C1F8A40066
:1022300051480068D0F8A8004F490968D1F8A410A7
:10224000884207D24C480068D0F8A4004A4909687F
:10225000C1F8A80000BF00BF4846FEF72DF800BF38
:1022600000BF002028803846ACE7FFE706F40040B6
:1022700058B100BF00BF4846FEF71EF800BF00BFC0
:1022800046F2B010288000209CE73C4800780028E7
:102290000BDD00BF00BF4846FEF70EF800BF00BFD1
:1022A00046F66350288000208CE743460722002131
:1022B000084600F0D3FC00BF00BF4846FDF7FCFF16
:1022C00000BF00BFFFF70CFA00BF00BFFDF7F0FF33
:1022D000814600BF00BF2848006890F8350020B153
:1022E000012826D0032834D12CE0FCB12248006814
:1022F000006C2060FEF7EAF81F490968096C401A73
:102300001D490968C1F8A4001B480068D0F8A8005E
:1023100019490968D1F8A410884207D21648006804
:10232000D0F8A40014490968C1F8A800002028804A
:1023300013E01CB110480068006C206046F2A91040
:1023400028800AE00CB10020206047F2D9202880C4
:1023500003E046F62E60288000BF00BF06480068F4
:10236000476C00BF00BF4846FDF7A6FF00BF00BF97
:10237000384627E740000020CC00002074000020F1
:102380002DE9F04106460D4614461DB1B5F5004F46
:1023900002D100E000BF05E045F625602080002066
:1023A000BDE8F08100BFFEF791F880462346424623
:1023B0002946304601F052FB07463846F0E7000058
:1023C0002DE9F04705460E4617461C464FF0000A19
:1023D0002E480078002804DD47F259102080BDE81F
:1023E000F0871EB946F2D5202080F8E71FB946F2E3
:1023F000D5202080F3E700BF00BFFDF759FF8246DC
:1024000000BF00BF0DB922480568286868B900BF41
:1024100000BF5046FDF750FF00BF00BF00203060F6
:10242000386047F252102080D9E795F83C0000F060
:10243000010068B900BF00BF5046FDF73DFF00BF77
:1024400000BF00203060386047F254102080C6E79B
:1024500000BF00BF5046FDF72FFF00BF00BF4FF089
:102460000008D5F8249003E009F1040908F10108F7
:10247000D9F800000028F7D0C6F80080A86BA0EBC0
:10248000080038600020208000BFA8E7400000203E
:10249000CC000020F0B50446DDE9055602EB8500CE
:1024A00020F007004FF0000C071F3846C7F800C0A7
:1024B0004FF4805C071F3846C7F800C04FF0150C7A
:1024C000071F3846C7F800C04FF0140C071F3846E6
:1024D000C7F800C04FF0130C071F3846C7F800C0FC
:1024E0004FF0120C071F3846C7F800C04FF0110C10
:1024F000071F3846C7F800C04FF0100C071F3846BA
:10250000C7F800C04FF0090C071F3846C7F800C0D5
:102510004FF0080C071F3846C7F800C04FF0070CF3
:10252000071F3846C7F800C04FF0060C071F384693
:10253000C7F800C04FF0050C071F3846C7F800C0A9
:102540004FF0040C071F3846C7F800C04FF0030CCB
:10255000071F3846C7F800C04FF0020C071F384667
:10256000C7F800C04FF0010C071F3846C7F800C07D
:102570004FF0000C071F3846C7F800C04FF0807CB2
:10258000071F3846C7F800C0071F38463C60DFF811
:102590005CC1071F3846C7F800C04FF0123C071F48
:1025A0003846C7F800C04FF0033C071F3846C7F84D
:1025B00000C04FF0023C071F3846C7F800C0071F95
:1025C00038463B60071F384639604FF0310C071F13
:1025D0003846C7F800C04FF0300C071F3846C7F820
:1025E00000C04FF0290C071F3846C7F800C04FF055
:1025F000280C071F3846C7F800C04FF0270C071FEC
:102600003846C7F800C04FF0260C071F3846C7F8F9
:1026100000C04FF0250C071F3846C7F800C04FF028
:10262000240C071F3846C7F800C04FF0230C071FC3
:102630003846C7F800C04FF0220C071F3846C7F8CD
:1026400000C04FF0210C071F3846C7F800C04FF0FC
:10265000200C071F3846C7F800C04FF0190C071FA1
:102660003846C7F800C04FF0180C071F3846C7F8A7
:1026700000C04FF0170C071F3846C7F800C04FF0D6
:10268000160C071F3846C7F800C04FF0113C071F53
:102690003846C7F800C04FF0103C071F3846C7F84F
:1026A00000C04FF0093C071F3846C7F800C04FF084
:1026B000083C071F3846C7F800C04FF0073C071F0B
:1026C0003846C7F800C04FF0063C071F3846C7F829
:1026D00000C04FF0053C071F3846C7F800C04FF058
:1026E000043C071F3846C7F800C0F0BD453A000853
:1026F00070B505460C460A480078002803DD47F20D
:102700005D10208070BD0748854203D147F25B1001
:102710002080F7E72146284601F082FA00BFF1E762
:1027200040000020CC12002010B51D48006810B1F8
:102730001B4800688047FDF7C9FE04461948006839
:1027400019490968884215D016480068D0F89800E1
:10275000201A14490968C1F8940012480068D0F89A
:102760009C0010490968D1F8941008440D49096883
:10277000C1F89C000C480068C0F8984009480068FF
:10278000D0F8B40009490968884205D207480068B2
:1027900004490968C1F8B40000200449086010BD6C
:1027A00034000020CC000020D00000207000002069
:1027B0002DE9F04105460E46144600272A480078C8
:1027C000002804DD47F275202080BDE8F08127480D
:1027D0000078002803DD46F663502080F5E736B127
:1027E000022E05D0042E0AD0082E09D101E000BF28
:1027F00000BF1DB947F27E202080E6E704E003E039
:1028000045F625602080E0E700BF00BF00BFFDF770
:102810004FFD074600BF00BF01201549096881F838
:1028200036002346324629461148006801F098FADE
:10283000208838B100BF00BF3846FDF73DFD00BF1E
:1028400000BFC2E70A48006800F04EFC00BF00BFAE
:102850003846FDF731FD00BF00BFFEF741FF002005
:10286000208000BFB1E7000040000020740000207D
:10287000CC00002008B500F02BF86A4600210E4875
:10288000FFF77EFD0D49097801EB41010C4A02EB8F
:10289000810000F083FC0B480068401E0949086075
:1028A0000846006838B90848006808606A46002190
:1028B0000648FFF765FD08BD601700205A0000209C
:1028C0009C130020C8000020C40000202418002011
:1028D00010B50348006810B101480068804710BD7A
:1028E00038000020244A2549254A264A2649274AF5
:1028F0002748284A284A294A294A2A482A482B4A46
:102900002B482C4A2C482D4A2D482E482E482F481B
:102910002F4A304A304A3148314A324A32483348E5
:1029200033483448344835483548364A364A374AB9
:10293000374A384838483948394A3A4A3A4A3B4887
:102940003B483C483C493D483D4A3E4A3E4A3F4A56
:102950003F4A404A404A4148414A424A4248434825
:10296000434A444A4448454A454A464846484748F7
:1029700000BF00BF00BF7047C46200082C6400089D
:10298000C5620008C6620008C8620008CC62000880
:10299000D0620008CD620008F8620008F962000801
:1029A000FA620008FC620008FE6200080263000888
:1029B00004630008246300082663000828630008F5
:1029C0002A6300082C6300082E63000830630008A7
:1029D0005C6300085D6300085E63000860630008D4
:1029E00062630008636300086463000866630008AC
:1029F000686300086A6300086C6300086E6300087F
:102A000070630008A0630008A1630008A2630008C7
:102A1000A3630008A4630008A6630008A863000875
:102A2000D0630008D1630008D2630008D3630008B4
:102A3000D4630008D6630008D8630008DC6300088C
:102A4000DD630008DE630008DF630008E063000860
:102A5000E1630008E2630008E3630008E463000840
:102A6000E6630008E7630008E8630008EA6300081B
:102A7000EC630008ED630008F063000824640008BC
:102A80002564000826640008286400082A640008F9
:102A90000021034A1160034A118001807047000041
:102AA0004400002048000020002400BF19E000BFBF
:102AB00000BFFDF7FDFB044600BF00BF09480068EA
:102AC000401C0849086008480068401C0649086026
:102AD00000BF00BF2046FDF7EFFB00BF00BFFEF7C1
:102AE0009DFCE4E73C0000208C00002010B58AB07B
:102AF000044600200E4908600B2000210591CDE915
:102B00000704069108460B4909680B4A12680B4BEB
:102B10001B68CDE90132CDE903103F200023084AAC
:102B200008A100900C48FFF777F90AB010BD00002B
:102B30003C0000202862000824620008206200088F
:102B4000A92A000875432F4F532D4949492049644C
:102B50006C65205461736B00CC1200200021034A85
:102B60001160034A11800180704700004C00002072
:102B70005000002070B501461A4D2D681DB945F270
:102B80001E750D8070BD184D2D881DB945F21D753F
:102B90000D80F7E7134D28682A681032124D2D88F2
:102BA0006D1EACB2002308E002600025456005817F
:102BB000C560103010325D1CABB2A342F4DB0025BF
:102BC000056045600581C560064D2D68074E35607E
:102BD000054D2D88B5800025F58035810D8000BF1D
:102BE000D0E70000606200085862000890130020DF
:102BF00010B5014648894B89002B17DD0A680C4B3C
:102C00001B6813600A4C4B6823602346DB884C89A1
:102C10001B1B074CE38023469B884C892344044CB0
:102C2000A38000234B818B810B604B6010BD0000A3
:102C30009013002001810022428182810260426063
:102C4000704700000021034A1160034A118001808F
:102C50007047000054000020580000202DE9F0418A
:102C600005460C4616461F461548006880F8346035
:102C700000201349096881F835003946104800687A
:102C800000F088FD6CB104F10808EC6001222946CF
:102C90000B48006800F016F82946404600F06BF833
:102CA00006E0002006490968C887054909680863E5
:102CB00003480168204600F019F8BDE8F0810000E3
:102CC000CC00002010B5C287016300230AE0002475
:102CD0004C600C600C614C610C83CC6188602031CD
:102CE0005C1CA3B29342F2DB10BD000030B548B1CA
:102CF0004568C1F8C05000F10804226893681D6A55
:102D0000C56113E091F83450022D02D0072D08D18F
:102D100003E007A5C1F8C05007E007A5C1F8C050FF
:102D200003E008A5C1F8C05000BF00BF30BD0000DF
:102D30005461736B205100005461736B2053656DB7
:102D4000000000002000000030B507A5C1F8C05009
:102D500000F1080422681AB193681D6AC56101E098
:102D600001A5C56130BD0000200000000021016008
:102D7000416001817047F0B58E6896F83750078939
:102D80003FB90127078100274F600F600160416054
:102D900023E007897F1C0781026806E0946894F8A5
:102DA0003770AF4200DD02E05268002AF6D100BF62
:102DB00032B900274F6043680B60596041600CE0F6
:102DC00017682FB9116000270F604A60016004E0A6
:102DD00013680B604A6059601160F0BD2DE9F04145
:102DE0000446256BE68F0AE0D5F80C8008F1080749
:102DF0002946384600F00AF82035701E86B2002EAB
:102E0000F2DC0020E0872063BDE8F08110B5048982
:102E1000012C03D100240460446011E00C6824B943
:102E20004A680024146002600AE04C6824B90B6808
:102E300000245C60436003E00B684A685A601360DA
:102E40000489641E048100244C600C6010BD2DE9CF
:102E5000F84306460C4617469846089D94F83600F7
:102E6000082850D2DFE800F00405080906072B2CDB
:102E700000BF00BF00BF47E000BF94F83400032844
:102E800007D143463A4621463046009500F03FF8C8
:102E900003E0E765A4F86080256436B12046FFF7BB
:102EA0009DFF21463046FFF74FFF204600F03CFDD6
:102EB00000203434A070607004F8340924E000BFAE
:102EC00094F83400032807D143463A462146304659
:102ED000009500F01CF803E0E765A4F86080256425
:102EE000204601F01BF836B12046FFF777FF214658
:102EF0003046FFF729FF04203434A07000206070B2
:102F000004F8340900E000BF00BFBDE8F883F0B565
:102F10000446059E086BCD8F0AE0C768A74204D11E
:102F2000046142610383C66104E020306F1EBDB2BC
:102F3000002DF2DC00BFF0BD70B50025074C03E0AA
:102F400005F12000C5B2241D20680028F8D02068B3
:102F5000FDF7B9F92844C5B2284670BD1800002015
:102F6000002004E00021034A42F82010401C0228FF
:102F7000F8D370471800002030B5420900F01F0355
:102F80000121C3F11F04A140034C54F822400C431B
:102F9000014D45F8224030BD1800002030B54209EF
:102FA00000F01F030121C3F11F04A140034C54F89A
:102FB00022408C43014D45F8224030BD18000020CE
:102FC0000021034A1160034A11800180704700000C
:102FD000600000206400002000210AE001EB4102B3
:102FE000054B03EB820000220281026042604A1C12
:102FF000D1B24029F2D370479C13002010B504468B
:1030000094F83700FFF7B8FF94F8370005490978BE
:10301000884203D1204600F027F802E0204600F065
:1030200003F810BD5A00002010B590F8373003EBBC
:1030300043030C4C04EB83010B893BB901230B8147
:103040000023C36003610860486009E00B895B1CD2
:103050000B810B68C360002303610A68106108607C
:1030600010BD00009C13002010B590F8373003EB22
:1030700043030B4C04EB83010B893BB901230B8108
:103080000023C36003610860486008E00B895B1C93
:103090000B810023C3604A680261D060486010BDA4
:1030A0009C13002010B501460C8924B1012C03D0DB
:1030B000022C0CD101E000BF14E008684A680261EC
:1030C0000024C4601461D0600A6048600AE00868A7
:1030D0004A68C36800241C61C4600261D0600B6050
:1030E000486000BF00BF10BD2DE9F041054695F8CE
:1030F000370000EB4000124901EB80042F69EE68B5
:1031000087B946B9002020812060606095F83700BB
:10311000FFF744FF0EE02089401E2081002030612F
:10312000266007E02089401E2081FE600EB967609E
:1031300000E0376100202861E860BDE8F081000010
:103140009C13002010B504480078012803D1FDF736
:10315000BDF90249086010BD74000020680000201D
:1031600010B50A48007880B9FDF7B0F90849096838
:10317000441A08480068A04201D206480460064884
:103180000068A04201D20448046010BD7400002011
:10319000680000206C0000207000002070B505461B
:1031A00000262E480078012800D070BD00BF00BF67
:1031B000FDF77EF8064600BF00BF2C683CB900BF93
:1031C00000BF3046FDF778F800BF00BFEDE72448A8
:1031D000844207D100BF00BF3046FDF76DF800BF45
:1031E00000BFE2E7A06D10B1A06D401EA065A06D0C
:1031F00038B100BF00BF3046FDF75EF800BF00BF2A
:10320000D3E72889022807DA00BF00BF3046FDF760
:1032100053F800BF00BFC8E712480078002807DD58
:1032200000BF00BF3046FDF747F800BF00BFBCE756
:103230002846FFF737FF2C68606D18B90A48006808
:10324000A06501E0606DA06500BF00BF3046FDF7DE
:1032500033F800BF00BF00BFA7E700007C000020DC
:10326000CC120020740000207800002009A1C16168
:10327000002141610849096811B90021816105E017
:103280000549096881610449096848610249086083
:103290007047000020000000800000200021034A49
:1032A0001160034A118001807047000080000020F7
:1032B000840000202DE9FF5F0446884691461D46A4
:1032C0000020019000BF00BFFCF7F2FF019000BF9B
:1032D00000BF04F10807388900284FD104200128D5
:1032E00004D0022814D0042834D123E0206AFF2817
:1032F0000DD100BF00BF0198FCF7DEFF00BF00BF8B
:1033000046F6C5502880002004B0BDE8F09F22E0BA
:103310004FF6FF71206A88420BD100BF00BF0198B1
:10332000FCF7CAFF00BF00BF46F6C550288000204A
:10333000EAE710E0206A401C58B900BF00BF0198BE
:10334000FCF7BAFF00BF00BF46F6C550288000203A
:10335000DAE700E000BF00BF206A401C2062D4F81A
:1033600020A0C4F8249000BF00BF0198FCF7A4FF80
:1033700000BF00BF002028805046C5E708F4007059
:1033800008B13E8900E00126D7F800B011E0DBF873
:1033900008000290DBF80400039000231A46CDF8E1
:1033A000009020460299FFF752FDDDF80CB0701E28
:1033B00086B2002EEBD1D4F820A000BF00BF019848
:1033C000FCF77AFF00BF00BF08F4004008B9FEF721
:1033D00087F900202880504696E7000086B000203C
:1033E000009000BF06E0A9490968480001AA002131
:1033F000FFF7DEF9A64800780128F4D101A8FEF70E
:10340000F5FB0027A3480068A0490968884205D950
:10341000A04800689D490968B0FBF1F727B99D48AD
:1034200000680A21B0FBF1F72EE1FDF74FF8804666
:1034300000BF00BFFCF73CFF009000BF00BF9648F4
:1034400000689649086000209349086000BF00BFEB
:103450000098FCF731FF00BF00BF914800688F491A
:103460000968884248D98E4800688E49884205D24A
:1034700042F2107003900120029023E08848006817
:103480008949884205D24FF47A7003900A2002904D
:1034900018E0834800688549884203D2642003907D
:1034A00002900FE07E4800688149884205D20A20D8
:1034B00003904FF47A70029004E00120039042F2EE
:1034C00010700290764801680298B1FBF0FA7349D7
:1034D000039809684843B0FBFAF042F21071081AE9
:1034E00074490880744800880988884208DA71485D
:1034F00000887149088003E042F210706D4908802D
:10350000FEF780FC002500BF00BFFCF7D1FE009055
:1035100000BF00BF6948046800BF00BF0098FCF707
:10352000CBFE00BF00BF26E000BF00BFFCF7C0FE1F
:10353000009000BF00BF54F89C0F6060002044F86A
:103540009C0900BF00BF0098FCF7B6FE00BF00BF9B
:10355000D4F8A000054400BF00BFFCF7A9FE00900E
:1035600000BF00BFD4F8BC4000BF00BF0098FCF70C
:10357000A3FE00BF00BF002CD6D145B34948854209
:1035800005D242F2107005904FF0010B1BE0464847
:10359000854205D24FF47A7005904FF00A0B12E085
:1035A0004248854203D26420059083460BE04048A0
:1035B000854204D20A2005904FF47A7B03E0012073
:1035C000059042F2107BB5FBFBF0049003E0002075
:1035D00005900120049000BF00BFFCF769FE009039
:1035E00000BF00BF3548046800BF00BF0098FCF76B
:1035F00063FE00BF00BF2BE0D4F8A000059948434C
:103600000499B0FBF1F086B242F21070864200D904
:103610000646A4F88C60B4F88E00B04201DAA4F833
:103620008E6001AB04F1AC02111D2046FEF7C8FE0E
:1036300000BF00BFFCF73CFE009000BF00BFD4F805
:10364000BC4000BF00BF0098FCF736FE00BF00BFC3
:10365000002CD1D11A480078012805D10020184942
:10366000087001A8FEF7C2FAFCF730FFA0EB0809CA
:1036700014480068484502D21248C0F8009001AAD8
:1036800000213846FFF794F8CFE600006862000892
:1036900098000020806200088C0000209400002028
:1036A00090000020801A060000093D00005A6202C6
:1036B0000084D717880000208A000020A400002082
:1036C000860000209C00002010B58AB0044600202F
:1036D0001F4908601F4908601F4908601F4908709A
:1036E0001F4908701F48006820B946F62B602080EB
:1036F0000AB010BD1C4800681C490968884203D202
:1037000046F62C602080F3E7194800783F2803D361
:1037100046F62A602080EBE7032000210591CDE9E1
:1037200007040691084610490968124A12680D4BB1
:103730001B68CDE90132CDE903100D480078002364
:103740000D4A0EA100901248FEF766FB00BFCFE7BE
:103750008C000020940000209000002098000020A1
:10376000860000206C620008746200087C62000819
:103770006462000870620008DD33000875432F4F53
:10378000532D4949492053746174205461736B006F
:103790009C16002038B504460D4685B16B460222C2
:1037A0002946204600F0DCFABDF8000018B90320D5
:1037B00084F8360006E0022084F8360002E0022099
:1037C00084F836002046FFF78FFC38BD0021C0F892
:1037D000B8100949096819B90021C0F8BC1007E000
:1037E00005490968C0F8BC1003490968C1F8B80068
:1037F0000149086070470000A4000020D0F8B820FC
:10380000D0F8BC104AB90D4B196011B10023C1F8B2
:10381000B8300023C0F8BC300FE029B90023C2F84B
:10382000BC30C0F8B83008E0C2F8BC10C1F8B8200D
:103830000023C0F8BC30C0F8B8307047A4000020A6
:103840000021044A1160044A1180044A1160018079
:1038500070470000A4000020A8000020A000002065
:1038600070B5044600202060A0606060E0602061C8
:103870006061A061E06129A0206200206062A06216
:10388000E0622064E065A4F86000002104F16400B7
:10389000FFF7D0F9002044F8740F6060E060A08268
:1038A0002061743C002506E0002104F17C0040F812
:1038B0002510681CC5B2002DF6D0002034342061DC
:1038C00020676067606084F85600E067A067208129
:1038D0004FF0004060610020A061E0612062606202
:1038E000A4F85800A4F85A00E0652066FCF7EEFD45
:1038F000064666660020A066C4F8800020706070EE
:10390000A0704020E0700020C4F88400C4F8880053
:1039100004A0C4F88C00343C70BD00003F546173B7
:103920006B0000002000000010B50446204600F0A7
:10393000F5FA94F8360000F0040010B92046FFF7BD
:103940005DFB10BD70B504460D46002600BF00BFEC
:10395000FCF7AEFC064600BF00BF0020288094F8AC
:10396000360008285ED2DFE800F0040506071227BB
:10397000394B00BF00BF00BF00BF00BF3046FCF79F
:103980009BFC00BF00BF47F25310288055E014F89D
:103990008A0F401E207014F88A0928B9002084F884
:1039A00036002046FFF7C0FF00BF00BF3046FCF7DF
:1039B00083FC00BF00BF40E014F88A0F401E207057
:1039C00014F88A0910B9012084F8360000BF00BF3E
:1039D0003046FCF771FC00BF00BF2EE014F88A0FE0
:1039E000401E207014F88A0910B9022084F83600AD
:1039F00000BF00BF3046FCF75FFC00BF00BF1CE00B
:103A000014F88A0F401E207014F88A0910B9032098
:103A100084F8360000BF00BF3046FCF74DFC00BF05
:103A200000BF0AE000BF00BF3046FCF745FC00BF06
:103A300000BF46F62D60288070BD00BFFDF750FE28
:103A400000BFF9E708B504480068FEF79FFB694628
:103A50000020FEF7C7FA08BDCC0000202DE9F8438E
:103A60000446884617461D464FF0000900BF00BFB8
:103A7000FCF71EFC814600BF00BF0CB96748046814
:103A800027640020288094F83600082876D2DFE8E2
:103A900000F0040550510607525300BF00BF00BF9D
:103AA0000420012804D0022813D0042833D122E0B6
:103AB000606CFF280CD100BF00BF4846FCF7FCFB40
:103AC00000BF00BF46F6C55028800020BDE8F8833F
:103AD00022E04FF6FF71606C88420BD100BF00BF3F
:103AE0004846FCF7E9FB00BF00BF46F6C5502880FA
:103AF0000020EBE710E0606C401C58B900BF00BF2D
:103B00004846FCF7D9FB00BF00BF46F6C5502880E9
:103B10000020DBE700E000BF00BF606C401C606479
:103B2000666C00BF00BF4846FCF7C6FB00BF00BF85
:103B300071E000BF00BF00BF94F83400072815D122
:103B400000231A46214618460097FFF780F9666C55
:103B500000BF00BF4846FCF7AFFB00BF00BF08F442
:103B6000004000284AD1FDF7BBFD47E004200128B2
:103B700005D0022813D0042833D122E03FE0606C46
:103B8000FF280BD100BF00BF4846FCF795FB00BFE4
:103B900000BF46F6C5502880002097E722E04FF688
:103BA000FF71606C88420BD100BF00BF4846FCF734
:103BB00083FB00BF00BF46F6C5502880002085E784
:103BC00010E0606C401C58B900BF00BF4846FCF7CD
:103BD00073FB00BF00BF46F6C5502880002075E784
:103BE00000E000BF00BF606C401C6064666C00BFFA
:103BF00000BF4846FCF760FB00BF00BF0BE000BF02
:103C000000BF4846FCF758FB00BF00BF46F62D60DA
:103C10002880002600BF00BF304657E7CC000020B8
:103C200070B504460D46002600BF00BFFCF740FB00
:103C3000064600BF00BF0CB93D4804683C48006818
:103C400084420ED13B48007800280ADD00BF00BF47
:103C50003046FCF731FB00BF00BF46F663502880BA
:103C600070BD0020288094F83600082850D2DFE884
:103C700000F0041523313F404142042084F836000F
:103C8000012084F88A002046FFF72EFA00BF00BF0B
:103C90003046FCF711FB00BF00BF44E0052084F86C
:103CA0003600012084F88A0000BF00BF3046FCF7D0
:103CB00003FB00BF00BF36E0062084F83600012079
:103CC00084F88A0000BF00BF3046FCF7F5FA00BF59
:103CD00000BF28E0072084F83600012084F88A001D
:103CE00000BF00BF3046FCF7E7FA00BF00BF1AE094
:103CF00000BF00BF00BF94F88A00401C84F88A000F
:103D000000BF00BF3046FCF7D7FA00BF00BF0AE093
:103D100000BF00BF3046FCF7CFFA00BF00BF46F639
:103D20002D6028809CE700BFFDF7DAFC00BF97E715
:103D3000CC00002074000020002108E0064A02EBBD
:103D4000C100002202608280C2804A1C91B2034AF4
:103D500012889142F2DB7047BC0F00209862000885
:103D60002DE9F04F0C4616461D46042E1ED1DFF8F5
:103D7000A091D9F80090A4EB0909A9F1010313F56A
:103D8000803F0DD94FF00009C0F84C90C0F850901A
:103D9000C0F81C9047F27E29A5F80090BDE8F08F8E
:103DA000C46403F10109C0F850903FE084B3082EC9
:103DB00025D1D0F8489009EB0407DFF85491D9F8E1
:103DC0000090A7EB0909A9F10103A34201D2C7643E
:103DD00006E0DFF83C91D9F80090A144C0F84C907F
:103DE000DFF82CA1D0F84C90DAF800A0A9EB0A0972
:103DF000C0F85090D0F84C90C0F8489016E0DFF82A
:103E00001091D9F80090A144C0F84C9004650DE0E1
:103E1000FFE74FF00009C0F84C90C0F85090C0F890
:103E20001C9047F27E29A5F80090B7E7DFF8E4A0E0
:103E3000BAF800A0D0F84C90B9FBFAFB0AFB1B992A
:103E40001FFA89F8DFF8D09009EBC802B2F80490A5
:103E5000B9F1000F0BD14FF00009C0F81490C0F871
:103E6000189010604FF00109A2F804903EE011682C
:103E700034E0DFF89CA0D1F84C90DAF800A0A9EB70
:103E80000A09C1F85090D0F85090D1F850A0D1450F
:103E90000ED9D1F81490B9F1000F01D049691DE095
:103EA0004FF00009C0F8149081614861002115E0CD
:103EB000D1F81890B9F1000F07D14FF00009C0F800
:103EC000189041618861106007E0D1F818C0C0F80F
:103ED00018C04161CCF81400886100210029C8D1C4
:103EE000B2F8049009F10109A2F80490B2F8069022
:103EF000B2F804A0D14503DAB2F80490A2F8069013
:103F0000C2614FF00009A5F8009000BF46E700002D
:103F1000AC00002098620008BC0F002010B5C269F8
:103F2000BAB1002404651468844205D14169116066
:103F300039B100248C6104E0816943694B6103B1AC
:103F40009961002444618461C461C4649488641EDE
:103F5000948010BD002006E0054A02EBC00100225B
:103F6000CA80421C90B2034A12889042F4DB704728
:103F7000BC0F0020986200082DE9F05F4FF0000BA5
:103F800000BF00BFFCF794F9834600BF00BFFCF7F9
:103F90009DFA054656480068401C55490860084689
:103FA000006854490988B0FBF1F201FB12001FFAC6
:103FB00080FA514800EBCA08D8F80040002782E098
:103FC000002C7FD0D4F8149094F83600082875D2CD
:103FD000DFE800F00408051B063D075000BF00BFE6
:103FE00000BF6CE04249E06C0968401A2065404916
:103FF000E06C0968884206D1002084F8360020462B
:10400000FFF792FC00E0012759E03949E06C0968AC
:10401000401A20653649E06C0968884215D10020B5
:10402000E065A4F86000FCF751FA20642046FEF732
:10403000D5FE2046FFF778FC00203434A070032022
:104040006070002004F8340900E0012737E02849B7
:10405000E06C0968401A20652549E06C09688842CF
:1040600006D1042084F836002046FFF757FF00E011
:10407000012724E01E49E06C0968401A20651C49AC
:10408000E06C0968884217D10020E065A4F8600060
:10409000FCF71CFA20642046FEF7A0FE2046FFF73E
:1040A0003DFF04203434A07003206070002004F829
:1040B000340902E006E001E0012700E000BF00BF94
:1040C0004C4600E00127002F3FF47AAFFCF7FEF9E1
:1040D000461B0A480068B04201D20848066000BF8B
:1040E00000BF5846FCF7E8F800BF00BFBDE8F09FEE
:1040F000AC00002098620008BC0F0020B000002037
:104100001CB500BF0EE001AB6A4600210846FEF771
:1041100049F8BDF8040028B903480078012801D106
:10412000FFF72AFFEFE700004100002010B58AB03A
:10413000044600201D4908601D490860FFF7FCFD8A
:104140001C48006820B947F2122020800AB010BD38
:104150001948006819490968884203D247F21320B8
:104160002080F3E7164800783F2803D347F2112058
:104170002080EBE70B20002105910A46CDE90704DA
:1041800006910D4800680F4909680A4B1B68CDE984
:104190000131CDE903020A48007800230A4A0BA145
:1041A00000900F48FDF738FE00BFCFE7AC000020BD
:1041B000B000002088620008906200087C6200085D
:1041C000846200088C6200080141000875432F4F8B
:1041D000532D494949205469636B205461736B0026
:1041E0006017002070B58AB004460020314908608D
:1041F0003148006840B1314800682F490968B0FB78
:10420000F1F02F49086006E02C4800680A21B0FB55
:10421000F1F02B4908602A4800682A49086000200C
:104220002949086029490860002508E0284800EB72
:10423000C5060020B080F0803060681C85B225483B
:1042400000888542F2DB2448006820B947F24730F5
:1042500020800AB070BD2148006821490968884261
:1042600003D247F248302080F3E71E4800783F2809
:1042700003D347F246302080EBE70B200021059165
:10428000CDE907040691084614490968164A1268E0
:10429000114B1B68CDE90132CDE9031011480078BC
:1042A0000023124A12A100901748FDF7B5FD00BF88
:1042B000CFE70000B4000020A4620008806200087C
:1042C000C4000020C8000020C0000020BC00002066
:1042D00044120020B8620008A8620008B06200081A
:1042E0007C620008A0620008AC620008014400087B
:1042F00075432F4F532D4949492054696D657220EC
:104300005461736B0000000024180020F0B50C46C7
:10431000022680F82A60012C05D12D4F466A3F689D
:104320003E4486610CE0066A2EB9294F466A3F6812
:104330003E44866104E0264F066A3F683E4486613B
:10434000244F3F888669B6FBF7FC07FB1C66B5B2B5
:10435000214E06EBC502166836B900260661466195
:104360001060012696802CE0194F86693F68F61B85
:10437000C661116820E0164F8E693F68F61BCE615A
:10438000C669CF69BE4209D90E690EB1096913E049
:10439000002606614161086100210DE04E692EB9D9
:1043A0000026466101614861106004E04B69436189
:1043B00001611861486100210029DCD19688761CD2
:1043C0009680D6889788BE4201DA9688D680F0BD5E
:1043D000C0000020B862000844120020002006E05F
:1043E000054A02EBC0010022CA80421C90B2034A77
:1043F00012889042F4DB704744120020B862000833
:104400001CB500BF53E001AB6A4600210846FDF72A
:10441000C9FE01A8FDF7B4F9FCF758F80646244890
:104420000068401C22490860084600682149098844
:10443000B0FBF1F201FB12001FFA80FA1E4800EBFC
:10444000CA08D8F800404FF0000B21E0F4B1D4F8CE
:1044500010901749A0690968884214D1204600F0DD
:104460002FF8208D022804D101212046FFF74EFFAE
:1044700002E0032084F82A00A56815B12046E1680F
:10448000A8474C4604E04FF0010B01E04FF0010B50
:10449000BBF1000FDAD0FCF719F8871B01A8FDF774
:1044A000DBF906480068B84201D204480760AAE771
:1044B000C0000020B862000844120020BC000020A8
:1044C000F0B5114E36888569B5FBF6F706FB175532
:1044D000ACB20E4D05EBC4021568854205D10169E9
:1044E000116039B100254D6104E0416903690B6138
:1044F00003B15961012580F82A5000250561456105
:1045000095886D1E9580F0BDB862000844120020A9
:1045100029B1064A12680243044B1A6004E0034AB8
:1045200012688243014B1A60704700003038024025
:1045300029B1064A12680243044B1A6004E0034A98
:1045400012688243014B1A607047000040380240F5
:10455000F0B5002100220024022500260223324F5C
:104560003F6807F00C0121B1042905D0082937D193
:1045700005E02E4F076036E02D4F076033E02A4FED
:104580003F1F3F68C7F38056274F3F1F3F6807F024
:104590003F036EB1264FB7FBF3F7DFF88CC0ACF1E9
:1045A000040CDCF800C0CCF3881C07FB0CF40CE016
:1045B0001E4FB7FBF3F7DFF870C0ACF1040CDCF86A
:1045C00000C0CCF3881C07FB0CF4174F3F1F3F685B
:1045D000C7F301477F1C7D00B4FBF5F7076002E0DD
:1045E000124F076000BF00BF0F4F3F6807F0F00198
:1045F0000909104F7A5C0768D74047600A4F3F6847
:1046000007F4E051890A0B4F7A5C4768D74087600E
:10461000054F3F6807F46041490B064F7A5C4768D5
:10462000D740C760F0BD0000083802400024F40005
:1046300000127A000000002000B587B0012106209A
:10464000FFF766FF0121C803FFF772FF38200090D3
:1046500002208DF805008DF8040000208DF806007A
:104660008DF8070069462648FBF737FF062203212D
:104670002348FBF77AFF062204212148FBF775FF48
:10468000062205211E48FBF770FF4FF440711D48BC
:10469000FBF790FF4FF44070009001208DF804006C
:1046A0008DF8070069461748FBF717FF00211648E9
:1046B00000F05AF80020ADF808004FF48270ADF811
:1046C0000A000020ADF80C00ADF80E00ADF81000A7
:1046D0004FF40070ADF812003020ADF81400002047
:1046E000ADF816000720ADF8180002A9064800F042
:1046F00047F80121044800F037F807B000BD00007A
:104700000004024000080240003C0040014600BF97
:104710000A48008800F002000028F9D00748001D70
:10472000018000BF0548008800F001000028F9D092
:104730000248001D0088C0B270470000083C0040DD
:1047400030B503460C461546002243F08000FFF7C3
:10475000DDFF002205E0FF20FFF7D8FFA854501C22
:10476000C2B2A242F7DB30BD21B1028842F0400262
:10477000028004E002884FF6BF731A40028070473F
:1047800010B50022028802F441520B884C88234362
:104790008C882343CC8823430C8923434C892343AF
:1047A0008C892343CC8923431A430280838B4FF2A5
:1047B000FF74234083830B8A038210BD704700007F
:1047C0000CB50020019000903448006840F480301F
:1047D0003249086000BF3148006800F400300090A2
:1047E0000198401C0190009818B90198B0F5A04FAD
:1047F000F1D12A48006800F4003010B10120009087
:1048000001E0002000900098012846D12348403064
:10481000006840F08050214940310860204800681D
:1048200040F440401E4908601C48083000681B499D
:10483000083108600846006840F4004008600846F7
:10484000006840F4A05008601648091F0860081F5F
:10485000006840F08070091F086000BF0F480068C2
:1048600000F000700028F9D040F205700E49086091
:104870000A480830006820F0030008490831086041
:104880000846006840F00200086000BF0348083096
:10489000006800F00C000828F8D10CBD0038024078
:1048A0000070004008544007003C0240042808D132
:1048B0004FF0E021096941F004014FF0E02211615D
:1048C00007E04FF0E021096921F004014FF0E022F8
:1048D0001161704710B505480078012805D1FCF733
:1048E0007BFEFDF7C7FFFCF78DFE10BD41000020E9
:1048F00010B51548006840F470001349086013486B
:10490000006840F001001149086000200F4908319B
:1049100008600E4800680E4908400C4908600D48C0
:10492000091D0860081F006820F48020091F086026
:10493000002006490C310860FFF742FF4FF000608D
:1049400001498039086010BD88ED00E00038024060
:10495000FFFFF6FE1030002470B504466FF004002F
:10496000FFF7A4FF2046E11704EB5171C1F3C70123
:10497000114A1170E11704EB5171CD100F48006816
:104980000F49B1FBF0F045430C4800684FF47A71D1
:10499000B1FBF0F00B4908804FF0E020006940F0D7
:1049A00002004FF0E021086108464561006940F0CF
:1049B0000100086170BD0000100000208062000846
:1049C00040420F001200002008B5FCF705FE01214F
:1049D000084800F016F8012808D10121054800F028
:1049E0000DF86A4600210448FDF794F8FCF70AFE2A
:1049F00008BD00000004004070420020CA4302824B
:104A0000704730B50246002000230024158A05EACD
:104A10000103958905EA010413B10CB1012000E0FE
:104A2000002030BD00BFFEE703B4019841000098AC
:104A300050EAC12018BF04204A0D18BF40F0010001
:104A400040F2FF72B2EB515F08BF40F00200012854
:104A500008BF052002B0704770B5C1482DED020BAC
:104A60002DED0E8B82B0119D25F000449FEDBEDB35
:104A70009FEDBFEB84423EDBA4F140511098A1F1C1
:104A80007F6108430FD0BC48844202DC28D11098D3
:104A900030B39DED100B02B0BDEC0E8B02B0BDE843
:104AA000704000F069BC9DED100B53EC1D2B51ECD8
:104AB000100B01F079F89DED100B41EC180B53EC45
:104AC0001E2B51EC100B01F06FF853EC182B00F07B
:104AD0006BFE41EC100B02B0BDEC0E8B02B070BD52
:104AE0000120FBF703FC02B0BDEC0E8B02B0BDE869
:104AF000704000F055BCA1489FEDA18B844256DA6E
:104B00009DED100BB4F1795F0ADA51EC100BFFF751
:104B10008BFF042808BF00F053FC9DED100BDAE773
:104B200053EC102B51EC100B01F03EF841EC190B3B
:104B300095480621B0EE490AF0EE690A784400F083
:104B40009FFB53EC192B51EC100B01F02DF841ECAD
:104B50001A0B8E48B0EE490AF0EE690A0421784437
:104B600000F08EFB53EC192B51EC100B01F01CF8EC
:104B700053EC182B00F018FE41EC100B51EC1A0B03
:104B800053EC102B00F0B8FECDE900019DED000BB9
:104B900053EC102B9DED100B51EC100B01F004F8B1
:104BA0009DED101B53EC112B00F0FEFDD2E09DEDAE
:104BB000100B51EC100B00F081FC53EC182B01F0A2
:104BC000F1F89FED730BCDE9000153EC102B9DED37
:104BD000000B51EC100B00F0E7FF41EC190B6E4895
:104BE0000621B0EE490AF0EE690A784400F048FB6D
:104BF00053EC192B51EC100B00F0D6FF41EC1B0BC2
:104C00006648B0EE490AF0EE690A0421784400F0E3
:104C100037FB53EC192B51EC100B00F0C5FF53EC94
:104C2000182B00F0C1FD41EC1C0B51EC190B00F0EE
:104C3000FBFC41EC180B5A489FED5BABA04222DC19
:104C400053EC1C2B51EC1B0B00F056FECDE9000180
:104C50009DED000B51EC180B53EC102B00F0A4FF52
:104C600053EC182B00F0A0FD53EC1A2B00F09CFF26
:104C700053EC1D2B01F06EF953EC1E2B01F092F852
:104C800041EC100B5FE08DED008B002000909DED5E
:104C9000000B51EC180B53EC102B00F085FD9DED33
:104CA000000B41EC1E0B53EC102B51EC100B00F0E1
:104CB0007BFF53EC192B01F075F853EC1E2B00F021
:104CC0001BFE41EC190B53EC1C2B51EC1B0B00F0A1
:104CD00013FE41EC1B0B53EC1A2B51EC190B00F09B
:104CE00063FF53EC1D2B01F05DF841EC190B53EC05
:104CF0001A2B51EC180B00F057FF53EC1B2B00F054
:104D000053FF53EC192B01F025F99DED000B41ECFD
:104D1000180B53EC1A2B51EC100B00F045FF9FEDD4
:104D2000249B53EC192B01F03DF841EC100B51EC96
:104D3000180B53EC102B01F00DF953EC192B01F06B
:104D400031F841EC100B002D3FF7C5AE51EC100BC4
:104D500000F0ECFC41EC100BBDE600000000000090
:104D60000000F03F00000000075C143326A6913CD1
:104D7000182D4454FB21F93F0000F07F0000E03F74
:104D8000000000000000F03FF0180000FE180000D6
:104D9000000000000000E03F421800005018000032
:104DA0003333EF3F0000000000000000000000402F
:104DB000182D4454FB21E93F70B59B482DED020BA3
:104DC0002DED068B079D25F00044A04218DC974886
:104DD000844202DC0AD1069840B19DED060BBDEC81
:104DE000068B02B0BDE8704000F0C6BA002DCCBF03
:104DF0009FED8F0B9FED900BBDEC068B02B070BD4D
:104E00008F48A04215DD8F48A042D8BF4FF0FF3435
:104E100058DD9DED060B51EC100BFFF705FE042845
:104E200008BF00F0CDFA9DED060BBDEC068B02B07D
:104E300070BD9DED060B51EC100B00F03FFBCDE972
:104E4000060181489FED828BA0423CDD8248A04252
:104E50001FDD00249FED82AB9DED060B53EC1A2B5A
:104E600051EC100B00F0A0FC9DED060B41EC190B72
:104E700053EC1A2B51EC100B00F096FE53EC182B50
:104E800001F068F853EC192B00F036FDCDE906016E
:104E900049E09DED060B012453EC182B51EC100B4F
:104EA00000F082FC9DED060B41EC190B53EC182B26
:104EB00051EC100B01F04EF853EC192B00F01CFDD7
:104EC000CDE906012FE06848A0421FDD02249FEDD6
:104ED000689B9DED060B53EC192B51EC100B00F069
:104EE00063FE53EC182B00F05FFC9DED060B41ECCC
:104EF000180B53EC192B51EC100B01F02BF853EC61
:104F0000182B00F0F9FCCDE906010CE09DED060B35
:104F1000032453EC102B9FED580B51EC100B00F0B9
:104F2000EBFCCDE906019DED060B53EC102B51EC8B
:104F3000100B00F039FE41EC180B53EC182B00F06D
:104F400033FE41EC190B4E480621B0EE490AF0EE53
:104F5000690A784400F094F953EC182B51EC100BCB
:104F600000F022FE41EC180B4648B0EE490AF0EE84
:104F7000690A0521784400F083F953EC192B51ECB0
:104F8000100B00F011FE41EC100B51EC180B53EC20
:104F9000102B002C0EDA00F007FC9DED061B53ECE5
:104FA000112B00F001FE9DED061B53EC112B00F0C0
:104FB000F9FE35E000F0F8FB9DED061B53EC112BDC
:104FC00000F0F2FD41EC100B2F48784400EBC400D8
:104FD00090ED001B51EC100B53EC112B00F0BAFFBD
:104FE0009DED061B53EC112B00F0B4FF41EC100BB0
:104FF0002648784400EBC40090ED001B51EC100BE8
:1050000053EC112B00F0CEFE41EC100B002DA2BF93
:10501000BDEC068B02B070BD51EC100B00F086FBAE
:1050200041EC100B01E70000000010440000F07F8D
:10503000182D4454FB21F93F182D4454FB21F9BF8E
:105040000000DC3F0000203E0000F33F00000000B5
:10505000000000000000F03F0000E63F00000000FC
:10506000000000000000004000800340000000003D
:10507000000000000000F83F000000000000F0BF4A
:105080009215000048150000D21400008A14000098
:1050900070B56B4E2DED040B2DED028B82B0DDF85B
:1050A0001CC0DDE905235C422CF000411C4341EAB1
:1050B000D474049D22F00040B44205D86C422C43C5
:1050C00040EAD474B4420BD99DED061B9DED040B50
:1050D00002B0BDEC028B04B0BDE8704000F056B9E0
:1050E000ACF14054A4F17F641C430BD0022404EAC9
:1050F000AC7444EAD27405439FED538B9FED542B5F
:1051000007D015E09DED040B51EC100B00F068F991
:1051100042E0002C11BF012C9DED040B02B0BDEC50
:10512000028B04BF04B070BD022C38D0032C3BD0DE
:105130000B439FED491B9FED4A0B0AD0B14218D19A
:10514000B04209D121F0804120F0804007910590C4
:105150000FE0002A15DA10E0434B7B44002C08BF17
:1051600093ED000B0DD0012C10D0022C17D0032C86
:105170001AD0B0421DD1002A03DAB0EE410AF0EE97
:10518000610A02B0BDEC028B04B070BD93ED000B60
:1051900051EC100B00F0CAFA41EC100BF1E7B0EE45
:1051A000480AF0EE680AECE7B0EE420AF0EE620A56
:1051B000E7E7401A00153C28C8BF8DED000B19DC4D
:1051C000BCF1000FBEBF10F13C0F9FED290B8DED20
:1051D000000B0FDB9DED060B53EC102B9DED040B2C
:1051E00051EC100B00F088FB00F068F900F0F8F8C3
:1051F000CDE90001002C08BF9DED000BC1D0012CB2
:1052000010D0022C9FED1C0B53EC102B9DED000BCE
:1052100051EC100B0DD000F09DFE53EC182B00F05C
:1052200099FEB9E7019880F0004001909DED000BD8
:10523000A7E700F08FFE53EC182B00F0B3FDABE7AF
:105240000000F07F00000000182D4454FB210940AD
:10525000182D4454FB2109C0182D4454FB21F9BFDB
:10526000182D4454FB21F93FBA1300000000000040
:105270000000000000000000075C143326A6A13CDB
:1052800070B504462DED028B4D1E00EBC500B0EE4F
:10529000408AF0EE608A90ED000B35F0060017D0E2
:1052A00053EC182B51EC100B00F07EFC41EC100B72
:1052B0006D1E04EBC50090ED001B51EC100B53EC80
:1052C000112B00F071FA41EC100B35F00600E7D11C
:1052D000022D36D0042D1CD0062D1CBFBDEC028B38
:1052E00070BD53EC182B51EC100B00F05DFC94EDED
:1052F0000A1B53EC112B00F057FA53EC182B00F05B
:1053000053FC94ED081B53EC112B00F04DFA41ECCB
:10531000100B53EC182B51EC100B00F045FC94EDE6
:10532000061B53EC112B00F03FFA53EC182B00F046
:105330003BFC94ED040B53EC102B00F035FA41ECE0
:10534000100B53EC182B51EC100B00F02DFC94EDCE
:10535000021B53EC112B00F027FA53EC182B00F032
:1053600023FC94ED001B53EC112B00F01DFABDEC57
:10537000028B41EC100B70BD10B553EC102B51ECAF
:10538000100B00F011FA41EC100B10BD10B553ECEE
:10539000112B51EC100B00F007FA41EC100B10BD73
:1053A0009FED050B10B553EC102B51EC100B00F0DA
:1053B000A3FA41EC100B10BD00000000000000003B
:1053C0009FED050B10B553EC102B51EC100B00F0BA
:1053D000EBFB41EC100B10BD0000000000000010C2
:1053E00010B541EC100BFFF7E7FC51EC100B10BDB2
:1053F00070B504460F480078A0B10F48007888B90E
:105400000E480088844206DB0C48008894FBF0F5C7
:10541000284600F01FF80948008894FBF0F100FBD3
:10542000114084B24FF47A7104FB01F000F01AF8D5
:1054300070BD00004100002040000020120000204C
:1054400008B56846FCF79CF908BD08B56846FCF746
:1054500003FA08BD38B504466A4608212046FDF720
:10546000A7F938BD2DE9F047074600264FF0E020A8
:10547000D0F814901048007807FB00F8FFF7E0FF21
:105480004FF0E020856911E04FF0E0208469AC42E4
:105490000CD0AC4202D2281B064403E0A9EB040066
:1054A000284406442546464500D300E0ECE700BF0B
:1054B000FFF7CBFFBDE8F0871000002082B0CDE9F8
:1054C000000121F0004001909DED000B02B051EC75
:1054D000100B7047F0EE400AF6EE001A60EEA11ACB
:1054E000B0EE611AB0EE600A10EE100A0749A1EBA7
:1054F000600000EE100A21EE002AF7EE081A42EED4
:10550000401A61EE801AB0EE610A7047DF59375FCA
:105510008AB00024A820FFF71FFA4FF4A060FBF721
:1055200071FFFFF789F8FBF749F809A8FBF780FF3F
:1055300000BF00BFFAF7BCFE044600BF00BF09A8C9
:10554000032100220592CDE90621089010464FF470
:10555000007133220C4BCDE90132CDE90310032059
:1055600000230A4A0AA100900C48FCF755FC00BF32
:1055700000BF2046FAF7A0FE00BF00BF09A8FCF755
:1055800001FB00BFFEE70000AC190020995600089F
:105590007374617274207461736B0000E8180020EA
:1055A00010B52DED068BB0EE408A18EE100A20F0F3
:1055B0000041C1F1FF41C90F21B19FED180ABDECB7
:1055C000068B10BDB7EE000AB4EEC08AF1EE10FAF9
:1055D00002DB9FED130AF2E7BFEE000AB4EEC08AC9
:1055E000F1EE10FA02D89FED0F0AE8E718EE100A64
:1055F00000F09AFD41EC1A0BB0EE4A0AF0EE6A0A8E
:10560000FFF72AFAB0EE409AF0EE609A51EC190BCF
:1056100000F098F800EE100AD1E70000000000004A
:10562000DB0FC93FDB0FC9BF00B52DED048B83B085
:1056300041EC190B00F0C2FB41EC180B18EE100AFC
:1056400018EE901A8DED008B002818BF012008433A
:1056500020F00040C0F17F6000F1E040C00F14D0A6
:1056600019EE101A19EE900A8DED009B002918BF53
:105670000121084320F00040C0F17F6000F1E040CC
:10568000C00F04BF0120FAF731FE51EC180B03B034
:10569000BDEC048B00BD000030B58BB00446002586
:1056A00000BFFAF7C6FE0AA8FCF734FB0AAA0121DC
:1056B0000846FCF79FF800BF00BFFAF7F9FD054662
:1056C00000BF00BF0AA8032100220592CDE90621F0
:1056D000089010464FF40061CC220D4BCDE9013209
:1056E000CDE90310042000230A4A0BA100900D48C5
:1056F000FCF792FB0AA90C48FEF792FA00BF00BF24
:105700002846FAF7D9FD00BF00BF0BB030BD00003E
:1057100070220020350B0008494D55207461736BD1
:1057200000000000AC210020E818002081F00041BA
:10573000704780F00040704721F00041704720F032
:105740000040704721F00042A2F16052B2F5801F84
:1057500001F0004328BFD2F17F6C0BD95FEA001C37
:1057600043EAC20242EB507018BF704728BF20F0D6
:1057700001007047B2F5801FBCBF184670474FEA62
:10578000410C1CF5001F02D2084600F043BD70B565
:1057900000F0B4FA00000089FFF7F6BF4FF00040B8
:1057A000A0F580007047000010B591EA030F48BFD4
:1057B00083F0004300F1D683841A71EB030C05D209
:1057C000121943EB0C03001B61EB0C01DFF824E121
:1057D0004FEA1154A4EB135C1EEA430F18BF9EEA74
:1057E000445F73D023EA0E03DCF1200E21EA04515A
:1057F00043F4801332D322FA0CFE10EB0E0023FA8E
:105800000CFE41EB0E01CCF1200E03FA0EFE10EB64
:105810000E0051F10001B1F5801FCCF1200E32D203
:1058200001EB045112FA0EF2BDE8104058BF704768
:10583000401C38BF5FEA420218BF7047002814BFFF
:1058400020F0010041F100014FEA410313F5001F70
:1058500038BF7047A1F1C04100F09EBA012A43EB66
:105860000302ACF1200CDCF11F0E32BF4FF0000E32
:1058700023FA0CF310EB030041EB0451B4EB115F7E
:10588000D0D0A1EB045101F5801149085FEA300046
:1058900001EB04510ED350F1000038BF12FA0EFE96
:1058A00008D1BDE81040C9E7401C38BF5FEA42029A
:1058B000CAD1C3E7BDE810404FEA410313F5001F0A
:1058C00038BF7047A1F1C04100F066BA9EEA445F5C
:1058D00008D011EA5E0FBDE8104004BF01F000419E
:1058E00000207047BDE8104070B500F007FA00BF17
:1058F00064FBBE3E0000E0FF2DE9C04130B4DFF89C
:10590000A0C23CEA111418BF3CEA131400F0EC806A
:1059100081EA03051CEA111444EAD57418BF1CEA95
:10592000131500F0C780A4EB05044FF0004545EACD
:10593000C12145EAC32341EA505143EA525304F1DD
:105940007F74994204F500344FEAC0204FEAC22226
:1059500008BF904200F09C804FEA13650FF240169A
:10596000765D4FEA134506FB05F7C7F1807706FB26
:1059700007F74FEAD737A7FB03687642C8F58038A8
:10598000A7FB06CE38BFA8F1010807FB08E64FF0D9
:10599000000EA6FB028CE6FB03CEDCF1000CCEF180
:1059A000004E38BFAEF1010EA6FB0C584FF00007B9
:1059B0004FF00005E6FB0E87A1FB08C6A0FB07CE53
:1059C00016EB0E0645F10005E1FB076515F1E04E0B
:1059D0007EBFA4F580345FEA46066D4116F180076C
:1059E00045F100054FEA17274FEA066647EA0567C3
:1059F000A6F1DE46B6F1805F4FEA15251FD938467D
:105A000024F0010C05EBC471BCF1FE6F01EB0C112D
:105A100002D8F0BCBDE8008124425CBF01F5801EC5
:105A20009EEAC47F02D4F0BCBDE80081244238D491
:105A3000F0BCA1F1C041BDE8004100F0ADB94FEAB2
:105A4000D22242EA43524FEAD323A7FB02864FEA0F
:105A5000D02040EA415007FB03661EEA0E0F4FEAD2
:105A6000D12105FB026658BFA6EB0056B6EB0056E7
:105A70004FEA520E4EEAC37E18EB0E0E56EB530E53
:105A8000BDD518EB02085E417F1C55F10005B6E755
:105A90004FF480154FF000074FF000064FF000085C
:105AA000ADE7F0BC4FF0000001F1C04101F0004152
:105AB000BDE8008111EA0C1F0CEA131500D00CE0C0
:105AC00013EA0C1F00F025804FF00000F0BC81EAC3
:105AD000030101F00041BDE80081F0BCBDE80041D8
